:020000040800F2
:1000000000800020A9160008C9040008CB040008DD
:10001000CD040008CF040008D1040008000000004F
:10002000000000000000000000000000D3040008F1
:10003000D504000800000000D7040008D904000817
:10004000F9160008F9160008F9160008F916000854
:10005000F9160008F9160008F9160008F916000844
:10006000F9160008F9160008F9160008E10400085E
:10007000F1040008F9160008F9160008F91600083E
:10008000F916000800000000F9160008F91600082B
:10009000F9160008F9160008F9160008F916000804
:1000A000F9160008F9160008F9160008F9160008F4
:1000B000F9160008F9160008F9160008F9160008E4
:1000C000F9160008F9160008F9160008F9160008D4
:1000D00001050008F9160008F9160008F9160008CD
:1000E000F9160008F9160008F9160008F9160008B4
:1000F000F9160008F9160008F916000800000000BB
:1001000000000000F916000800000000F9160008C1
:10011000F916000800000000F9160008F91600089A
:10012000F9160008F9160008F9160008F916000873
:10013000F91600080000000000000000F916000891
:10014000F9160008F9160008000000000000000081
:10015000000000000000000000000000000000009F
:10016000000000000000000000000000F916000878
:10017000F916000800000000000000000000000068
:1001800000000000F9160008000000000000000058
:10019000000000000000000000000000000000005F
:1001A0000000000000000000F9160008F916000821
:1001B000F9160008F9160008F916000800000000FA
:1001C00000000000F9160008000000000000000018
:0801D000F9160008F9160008F9
:1001D8000348044B834202D0034B03B118477047CE
:1001E8000C0000200C000020000000000548064B11
:1001F8001B1AD90F01EBA301491002D0034B03B11D
:10020800184770470C0000200C0000200000000078
:1002180010B5064C237843B9FFF7DAFF044B13B146
:100228000448AFF300800123237010BD0C000020A8
:10023800000000005417000808B5054B1BB105491C
:100248000548AFF30080BDE80840FFF7CFBF00BF07
:1002580000000000100000205417000872B6FEE7E6
:1002680010B594B006AC38220021204601F041FABE
:1002780000200190029003900490059001F0F8F896
:10028800022306934FF48072099240220A920D933A
:100298000E9304220F9255221092119312931393E6
:1002A800204600F0D9FA70B90F2301930323029373
:1002B80003900490059004210DEB010000F084FDEB
:1002C80018B914B010BDFFF7C9FFFFF7C7FF08B58D
:1002D80000F074FAFFF7C4FF00F006F800F02EF8FB
:1002E80000F056F8FEE7000084B0134BDA6C42F0D9
:1002F8000402DA64DA6C02F004020092009ADA6C02
:1003080042F02002DA64DA6C02F020020192019ACB
:10031800DA6C42F00202DA64DA6C02F0020202924B
:10032800029ADA6C42F00102DA64DB6C03F0010332
:100338000393039B04B070470010024000B583B0DC
:10034800124B9A6C42F004029A649A6C02F004020E
:100358000092009A9A6C42F001029A649B6C03F036
:1003680001030193019B002211460B2001F066F95D
:100378000B2001F073F9002211460C2001F05EF900
:100388000C2001F06BF903B000BD00BF0010024063
:1003980008B51048104B03604FF482734360002384
:1003A80083604FF4E062C260036143614FF40072FE
:1003B80082610822C2610362436283620721C162CB
:1003C8000363426300F0BCF800B908BDFFF746FFBD
:1003D800FBE700BFE80000200038004010B588B0F7
:1003E80000230393049305930693079302682E4B07
:1003F8009A4201D008B010BD044603F5EC339A6D5B
:1004080042F480429A659A6D02F480420192019A00
:10041800DA6C42F00202DA64DB6C03F00203029346
:10042800029B4FF47043039302230493052307931D
:1004380003A91E4800F0CAFD1D481E4B03600C238B
:10044800436000238360C36080220261436183614B
:10045800C361036200F0F6FE00BB154BA3659C6206
:100468001548164B03600D23436010238360002357
:10047800C3608022026143618361C361036200F04B
:10048800E1FE70B90C4B63659C6200221146242082
:1004980001F0D4F8242001F0E1F8ABE7FFF7DEFE25
:1004A800DBE7FFF7DBFEEDE700380040000400481B
:1004B8008800002008000240280000201C0002409C
:1004C800FEE7FEE7FEE7FEE7FEE770477047704786
:1004D80008B500F083F908BD08B5024800F05CFFD4
:1004E80008BD00BF8800002008B5024800F054FF8E
:1004F80008BD00BF2800002008B5024800F096F8A3
:1005080008BD00BFE800002000B583B00B4B1A6E91
:1005180042F001021A661A6E02F001020092009A75
:100528009A6D42F080529A659B6D03F08053019357
:10053800019B01F023F803B000BD00BF001002408A
:1005480000286FD010B50446436A33B94368B3F541
:10055800827F05D00023C36102E000230361436169
:100568000023A36294F85D30002B52D0022384F854
:100578005D302268136823F040031360E368B3F525
:10058800E06F4CD90022B3F5706F04D0B3F5E06F7B
:1005980001D00023A362636803F48273A16801F4A5
:1005A80004410B43216901F002010B43616901F029
:1005B80001010B43A16901F400710B43E16901F0EA
:1005C80038010B43216A01F080010B43A16A01F451
:1005D800005120680B430360638B03F00403616AD6
:1005E80001F010010B43616B01F008010B43E16856
:1005F80001F470610B43216813434B602268D3698F
:1006080023F40063D36100202066012384F85D3061
:1006180010BD84F85C302046FFF7E0FEA6E74FF4F3
:100628008052B0E7012070477047000010B584B0D1
:100638000446026851689368C3F3801013F0400FB2
:1006480005D113F0010F02D011F0400F6DD113F056
:10065800020F02D011F0800F6BD1C3F3401C13F0CE
:10066800200F03D110B913F4807F65D011F0200F4B
:1006780062D070B194F85D0003285FD0206E40F01E
:100688000400206600200090D068009090680090D8
:100698000098BCF1000F0CD0206E40F001002066DD
:1006A8000020029090680290106820F040001060CE
:1006B800029A13F4807F09D0236E43F0080323665F
:1006C8000023039323689B680393039B236E002BEB
:1006D80032D02268536823F0E0035360012384F882
:1006E8005D3011F0020F02D111F0010F2ED02268F7
:1006F800536823F003035360A36D4BB1154A9A6303
:10070800A06D00F00BFE18B1236E43F04003236682
:10071800636D8BB10F4A9A63606D00F0FFFD58B1AD
:10072800236E43F04003236606E0E36C20469847B7
:1007380002E0236D2046984704B010BD00230193C2
:10074800D368019393680193019BF5E72046FFF76F
:100758006BFFF1E76107000808B5806A0023A0F87D
:100768004630C387FFF760FF08BD0000104B1B68C9
:100778000BB90120704710B504460E4A10684FF4B3
:100788007A72B2FBF3F3B0FBF3F000F06BFF68B9D9
:100798000F2C01D901200AE0024621464FF0FF3014
:1007A80000F04CFF044B1C60002000E0012010BD4D
:1007B80000000020080000200400002010B50320DD
:1007C80000F02AFF0F20FFF7D1FF18B101231C46C4
:1007D800204610BD0446FFF797FEF9E7034A136861
:1007E800034909680B441360704700BF4C0100209F
:1007F80000000020014B1868704700BF4C01002022
:10080800124BDA6802F00302DB68C3F30313013307
:10081800032A11D00E48B0FBF3F00C4BDB68C3F38E
:10082800062303FB00F0094BDB68C3F34163013384
:100838005B00B0FBF3F070470648B0FBF3F0034BE6
:10084800DB68C3F3062303FB00F0ECE7001002406B
:100858000024F40000127A00002800F0518270B5DC
:1008680082B00446036813F0010F37D0A54A936895
:1008780003F00C03D26802F003020C2B23D0082BE0
:1008880023D06368B3F5803F4ED0B3F5A02F51D085
:100898009C4B1A6822F480321A601A6822F480226B
:1008A8001A606368002B52D0FFF7A4FF0546954BEA
:1008B8001B6813F4003F11D1FFF79CFF401B64280D
:1008C800F5D9032025E2032AD9D18E4B1B6813F4EE
:1008D800003F03D06368002B00F01482236813F0F4
:1008E800020F5DD0874A936803F00C03D26802F0C8
:1008F80003020C2B3AD0042B3AD0E368002B75D0B6
:10090800804A136843F480731360FFF773FF05464A
:100918007C4B1B6813F4806F5FD1FFF76BFF401BA4
:100928000228F5D90320F4E1764A136843F48033AA
:100938001360B6E703F18043A3F53C331A6842F429
:1009480080221A601A6842F480321A60A9E7FFF719
:1009580051FF05466B4B1B6813F4003FBED0FFF7F1
:1009680049FF401B6428F5D90320D2E1022AC2D1ED
:10097800644B1B6813F4806F03D0E368002B00F00E
:10098800C381604A536823F0FE43216943EA016347
:1009980053605D4B1868FFF7E9FE002840F0B68108
:1009A800236813F0080F4CD063699BB3554AD2F8FB
:1009B800943043F00103C2F89430FFF71BFF05465B
:1009C800504BD3F8943013F0020F3AD1FFF712FFCF
:1009D800401B0228F4D903209BE14A4A536823F0BC
:1009E800FE43216943EA01635360D9E7454A136826
:1009F80023F480731360FFF7FDFE0546414B1B6827
:100A080013F4806FCCD0FFF7F5FE401B0228F5D910
:100A180003207EE13B4AD2F8943023F00103C2F868
:100A28009430FFF7E7FE0546364BD3F8943013F0C1
:100A3800020F06D0FFF7DEFE401B0228F4D9032080
:100A480067E1236813F0040F00F083802D4B9B6D42
:100A580013F0805F37D12B4B9A6D42F080529A6524
:100A68009B6D03F080530193019B01231E46274B86
:100A78001B6813F4807F29D0A368012B3AD0052B7B
:100A880046D0204BD3F8902022F00102C3F89020E2
:100A9800D3F8902022F00402C3F89020A368002B1A
:100AA80044D0FFF7A7FE0546164BD3F8903013F055
:100AB800020F4DD1FFF79EFE401B41F2883398424A
:100AC800F2D9032025E100231E46D0E70F4A136818
:100AD80043F480731360FFF78DFE05460B4B1B68CC
:100AE80013F4807FC8D1FFF785FE401B0228F5D993
:100AF80003200EE1034AD2F8903043F00103C2F814
:100B08009030CBE700100240040000200070004045
:100B1800884BD3F8902042F00402C3F89020D3F811
:100B2800902042F00102C3F89020B7E7FFF762FE79
:100B38000546804BD3F8903013F0020F08D0FFF72A
:100B480059FE401B41F288339842F2D90320E0E075
:100B5800E6B9236813F0200F35D0A369E3B1754ACD
:100B6800D2F8983043F00103C2F89830FFF742FEFC
:100B78000546704BD3F8983013F0020F23D1FFF7D6
:100B880039FE401B0228F4D90320C2E0694A936D5C
:100B980023F080539365DCE7664AD2F8983023F057
:100BA8000103C2F89830FFF725FE0546614BD3F8DC
:100BB800983013F0020F06D0FFF71CFE401B0228E6
:100BC800F4D90320A5E0E369002B00F0A180594A7D
:100BD800926802F00C020C2A64D0022B13D0554AFA
:100BE800136823F080731360FFF704FE0446514B2B
:100BF8001B6813F0007F4ED0FFF7FCFD001B022896
:100C0800F5D9032085E04B4A136823F080731360FD
:100C1800FFF7F0FD0546474B1B6813F0007F06D031
:100C2800FFF7E8FD401B0228F5D9032071E0414A8F
:100C3800D36841491940236A606A013843EA0013BE
:100C4800A06A43EA0023206B4008013843EA405376
:100C5800606B4008013843EA4063E06A43EAC063D6
:100C68001943D160136843F080731360D36843F06D
:100C78008073D360FFF7BEFD04462E4B1B6813F04C
:100C8800007F06D1FFF7B6FD001B0228F5D9032027
:100C98003FE000203DE0274AD168284B0B40D36055
:100CA800002036E0012B36D0224BDB6803F003012D
:100CB800226A914231D103F0F002616A0139B2EB44
:100CC800011F2CD103F4FE42A16AB2EB012F28D1F7
:100CD80003F07842E16AB2EBC16F24D103F4C0019A
:100CE800226B5208013AB1EB425F1ED103F0C06398
:100CF800626B5208013AB3EB426F18D1002008E04A
:100D080001207047012004E0012002E0012000E0FA
:100D1800184602B070BD0120FBE70120F9E7012069
:100D2800F7E70120F5E70120F3E70120F1E70120CB
:100D3800EFE700BF001002400C809F01FCFFEEFEB1
:100D48001E4B9B6803F00C03042B33D01B4B9B6892
:100D580003F00C03082B2FD0184B9B6803F00C03EF
:100D68000C2B01D000207047144BDA6802F0030204
:100D7800DB68C3F303130133032A11D01048B0FB17
:100D8800F3F00E4BDB68C3F3062303FB00F00B4BB9
:100D9800DB68C3F3416301335B00B0FBF3F07047DA
:100DA8000848B0FBF3F0054BDB68C3F3062303FBED
:100DB80000F0ECE702487047024870470010024014
:100DC8000024F40000127A00002800F0ED80F8B545
:100DD8000C460546774B1B6803F00F038B420BD27A
:100DE800744A136823F00F030B431360136803F06E
:100DF8000F038B4240F0DA802B6813F001031F4683
:100E080065D06B68032B30D0022B50D06A4B1B681F
:100E180013F4806F00F0CC80FFF792FF674B984285
:100E280052D9654A936823F0F00343F08003936036
:100E380080231F46604A936823F0030369680B43C5
:100E48009360FFF7D7FC06465B4B9B6803F00C03E7
:100E58006A68B3EB820F3AD0FFF7CCFC801B41F2F3
:100E680088339842F0D903207DE0534B1B6813F078
:100E7800007F01D1012076E0FFF7C2FC4F4B98427A
:100E88001CD94D4B9B6813F0F00F06D02B6813F05C
:100E980002031F46CED0AB689BB9474A936823F03C
:100EA800F00343F08003936080231F46C2E7424B60
:100EB8001B6813F4003FAFD1012054E000231F4604
:100EC800B8E700231F46B5E700231F46B2E72B68A3
:100ED80013F0020F48D013F0040F04D0364A936879
:100EE80043F4E06393602B6813F0080F06D0324A8E
:100EF800936823F47C5343F4E06393602E4A936829
:100F080023F0F003A9680B4393602A4B1B6803F096
:100F18000F03A34230D82B6813F0040F06D0264ADB
:100F2800936823F4E063E9680B4393602B6813F03C
:100F3800080F07D0204A936823F46053296943EACD
:100F4800C1039360FFF7FCFE1B4B9B68C3F30313BD
:100F58001B4AD35C03F01F03D8401A4B18601A4B86
:100F68001868FFF703FCF8BD802FCED1124A9368AA
:100F780023F0F0039360C8E70E4A136823F00F03C9
:100F880023431360FFF736FC06460A4B1B6803F041
:100F98000F03A342BFD0FFF72DFC801B41F288331B
:100FA8009842F2D90320DEE7012070470120DAE7F2
:100FB8000120D8E7002002400010024000B4C40419
:100FC8006C170008080000200400002070B582B0EB
:100FD80000236DE085684FEA430E032404FA0EF4FB
:100FE80025EA0405CC6804FA0EF42C4384604468AE
:100FF80024EA0C044D68C5F3001C0CFA03FC4CEA07
:101008000404446068E08C68012C6BD178E0DD084A
:10101800083550F8254003F0070C4FEA8C0C4FF0C8
:101028000F0E0EFA0CFE24EA0E0E0C6904FA0CF4EC
:1010380044EA0E0440F8254068E0052400E0002456
:1010480004FA0EF42C430CF1020C594D45F82C40CF
:10105800584CA4686FEA020C24EA02054E6816F49C
:10106800801F01D042EA0405524CA560E4680CEAEE
:1010780004054E6816F4001F01D042EA04054D4CE1
:10108800E56064680CEA04054E6816F4003F01D078
:1010980042EA0405474C656024680CEA04054E687A
:1010A80016F4803F01D042EA0405424A1560013334
:1010B8000A6832FA03F479D04FF0010C0CFA03FCF9
:1010C8001CEA0202F3D04C6804F0030E0EF1FF3E56
:1010D800BEF1010F7FF67EAF4C6804F0030CBCF143
:1010E800030F90D0C5685C004FF0030C0CFA04FCA9
:1010F80025EA0C0E8D6805FA04FC4CEA0E04C4605F
:101108004C6804F0030CBCF1020F80D005685C0049
:101118004FF0030C0CFA04FC25EA0C0E4D6805F0A0
:10112800030C0CFA04FC4CEA0E0404604C6814F43A
:10113800403FBCD0204C256E45F001052566246E45
:1011480004F001040194019C4FEA930C0CF1020590
:10115800174C54F8255003F0030E4FEA8E0E0F2457
:1011680004FA0EF425EA0405B0F1904F3FF467AF96
:10117800124CA04212D004F58064A04210D004F5AD
:101188008064A0420ED004F58064A0420CD004F51F
:101198008064A0423FF451AF062451E701244FE791
:1011A80002244DE703244BE7042449E702B070BD4D
:1011B8000000014000040140001002400004004803
:1011C8000368104A934214D8DBB2083B0E4AA2FBCC
:1011D80003231B090D49426C22F003020A4482646E
:1011E8000B4AC26403F01F03012202FA03F30365EA
:1011F8007047DBB2083B044AA2FB03231B090633F2
:101208000449E8E707040240CDCCCCCC00080240F2
:101218008008024020080240436803F07F03074A21
:101228001A4492004265064A8265013B03F01F0397
:10123800012202FA03F3C365704700BF3F82001022
:101248004009024000285BD010B5044602682D4BC7
:101258009A423DD82C4B13442C49A1FB03131B097C
:101268009B0043642A4B0364022384F825301168E9
:101278006FF30E11A368E0680343206903436069B4
:101288000343A0690343E0690343206A03430B4314
:1012980013602046FFF794FFA368B3F5804F22D070
:1012A8006368A26C03F07F031360E36C226D5A60DD
:1012B8006368013B032B19D900236365A365E365C4
:1012C8000020E063012384F8253084F8240010BD51
:1012D800104B13440D49A1FB03131B099B004364E6
:1012E8000D4B0364C0E700236360D9E72046FFF78E
:1012F80093FF636D00221A60A36DE26D5A60DFE709
:101308000120704707040240F8FFFDBFCDCCCCCCCC
:1013180000000240F8FBFDBF0004024008B590F849
:101328002530022B09D00423C363012380F825301C
:10133800002280F82420184608BD0268136823F0AC
:10134800010313600268136823F00E031360826CB4
:10135800136823F480731360436C03F01F02016C5D
:10136800012393404B60C36C026D5A60436D33B1E7
:101378001A6822F480721A60836DC26D5A60012364
:1013880080F82530002380F82430836B13B1984708
:101398000020D1E71846CFE708B5036C1968D0F8E4
:1013A80000C0DCF800E0436C03F01F0304229A40FD
:1013B8000A4218D01EF0040F15D0DCF8003013F0E4
:1013C800200F05D1DCF8003023F00403CCF80030FE
:1013D800436C03F01F02016C042393404B60036BC2
:1013E80003B1984708BD02229A400A421FD01EF056
:1013F800020F1CD0DCF8003013F0200F08D1DCF805
:10140800003023F00A03CCF80030012380F825309F
:10141800436C03F01F02016C022393404B600023CE
:1014280080F82430C36A002BDCD09847DAE708221A
:1014380002FA03F30B42D5D01EF0080FD2D0DCF825
:10144800003023F00E03CCF80030436C03F01F0388
:10145800016C012202FA03F34B60C26380F8252075
:10146800002380F82430436B002BBBD09847B9E7A2
:10147800002836D13E4B1B6803F4C063B3F5806F78
:1014880008D03B4AD2F8803023F48073C2F8803009
:1014980000207047364AD2F8803023F48073C2F8AF
:1014A8008030136823F4C06343F400731360314B36
:1014B8001B68322202FB03F32F4AA2FB03239B0C77
:1014C800013300E0013B2A4A526912F4806F01D0CF
:1014D800002BF7D1264B5B6913F4806F44D10020B1
:1014E8007047B0F5007F08D0214A136823F4C06321
:1014F80043F480631360002070471D4B1B6803F49E
:10150800C063B3F5806F08D0194AD2F8803043F42D
:101518008073C2F8803000207047154AD2F88030B6
:1015280043F48073C2F88030136823F4C06343F433
:10153800007313600F4B1B68322202FB03F30E4A41
:10154800A2FB03239B0C013300E0013B084A5269CC
:1015580012F4806F01D0002BF7D1054B5B6913F4AF
:10156800806F03D100207047032070470320704725
:10157800007000400800002083DE1B43024A936885
:1015880043F480439360704700700040002807DBF5
:1015980000F01F02400901239340024A42F820301C
:1015A800704700BF00E100E0002808DB0901C9B26C
:1015B80000F1604000F5614080F80013704700F0CA
:1015C8000F000901C9B2014B1954704714ED00E02E
:1015D80000B500F00700A0F1030CBCF1040F07D818
:1015E800C0F1070E0430062806D84FF0000C03E0BF
:1015F8004FF0040E4FF0000C4FF0FF3303FA0EF0DB
:1016080021EA000101FA0CF103FA0CF322EA0302C1
:1016180041EA020000BD0000074AD36823F4E063F2
:101628001B041B0C000200F4E060034343F0BF639B
:1016380043F40033D360704700ED00E010B5044672
:10164800054BD868C0F30220FFF7C2FF01462046C9
:10165800FFF7AAFF10BD00BF00ED00E008B5FFF7D7
:1016680095FF08BD0138B0F1807F0BD24FF0E02321
:101678005861054AF02182F823100020986107225A
:101688001A6170470120704700ED00E0034AD2F864
:10169800883043F47003C2F88830704700ED00E0EA
:1016A8000D488546FFF7F2FF0C480D490D4A002307
:1016B80002E0D458C4500433C4188C42F9D30A4AFF
:1016C8000A4C002301E013600432A242FBD300F06D
:1016D80019F8FEF7FCFDFEE700800020000000205E
:1016E8000C000020841700080C0000205001002086
:1016F800FEE702440346934200D1704703F8011BFA
:10170800F9E7000070B50D4B0D4C00261D1BB6EB1C
:10171800A50F09D100F01AF80A4C0B4B00261D1B27
:10172800B6EBA50F05D170BD54F8043B98470136B8
:10173800EDE754F8043B98470136F1E77C170008B9
:101748007C1700087C17000880170008F8B500BF50
:10175800F8BC08BC9E467047F8B500BFF8BC08BC8A
:041768009E467047E2
:10176C000000000000000000010203040607080945
:04177C00410200081E
:041780001902000842
:0C17840001000000100000000024F40030
:04000005080016A930
:00000001FF
